:10006200758921758CFF758AA3758DFD758BFDD2FF
:0E0072008EC29FD29ED29CD2ACD2A9D28C223A
:10008000E4F50AF50BF50875090B12006230A304BC
:08009000D2AF80F9C2AF80F588
:03000B0002000EE2
:10000E00C0E0C0D075D000C006C007758CFF758AE1
:10001E00A3050BE50B7002050AC374B49509FFE442
:10002E009508FEEFB50B0FEEB50A0B209008D29097
:10003E00750A00750B00E50BB50910E50AB5080B3E
:10004E00309008C290750A00750B00D007D006D00C
:04005E00D0D0E032EC
:0300000002009863
:0C009800787FE4F6D8FD75810D02008031
:00000001FF
