:03000000020214E5
:0C021400787FE4F6D8FD7581B702025B2C
:0507C000000000000034
:0D07770001710008A0100A0F173E000000DD
:1004F60012011C78B1F690000112013578B2F6901F
:10050600000212013578B3F690000312013578B473
:10051600F690000412013578B5F67885760178B143
:04052600E6F599223B
:1007550075CAD975CBFF75C834759850D2AFD2AC70
:010765002271
:100741007FBE7E00E4FD0DBD1BFCEF1F70011EEF9F
:030751004E70F1F6
:010754002282
:0C07930015691569156915691569156966
:01079F002237
:1003F400E4FF7884760220A5067884E60670F71276
:100404000793120793120793E4789DF630A50276BA
:10041400017884760230A5067884E60670F778843D
:10042400E66401601278ABE625E0FEF6789DE64EC0
:0704340078ABF60FBF08BB17
:01043B00229E
:10018400C2A5120741D2A51207931207931207932F
:10019400120793D2A520A5777884760220A5067845
:1001A40084E60670F77884760230A5067884E6063D
:1001B40070F71203F478ABE678A8F61203F478AB80
:1001C400E678A9F61203F478ABE6787EF61203F427
:1001D40078ABE6787FF61203F478ABE6789CF6FF0A
:1001E400D2A5787FE6FE18E6FD2EFC78A8E6FB2C67
:1001F400FC08E6FA2C789DF6B5071408A60308A6B1
:10020400027872A605787DA606789CE67886F622A2
:10067800120184789EE678A0F618E678A1F67872DA
:10068800E678A2F6787DE678A3F67886E678A4F68A
:01069800223F
:1002A00078647C007D007BFF7A0779C07E007F0543
:1002B0001200F67580FF7590FF75A0FF75B0FFD234
:1002C00083D2847F647E001200031207B7120755A1
:1002D000C2A312032878B6EEF608EFF678A5F678F2
:1002E000A77663120678E4F56374A02563F9E4FA4F
:1002F000FB1203A612060DEF70FA0563E563C394C3
:100300000740E6E4F563E563C3943250C512058CFB
:100310001205E4EF600EE509B50D02D2A3E50CB5B8
:080320000D02C2A3056380DE9B
:0300230002043C98
:10043C00C0E0C0D075D000C0003098317488251E43
:10044C00F8A6997488251EF8E6F5993099FDC2999D
:10045C00051EC298E51EB40803751E007888E6B424
:10046C00420B08E6B44D06788FE678A6F6D000D09D
:04047C00D0D0E032CA
:10072B00D2A100D2A00000000000C2A10000000076
:06073B0000C2A000002234
:10076600C2A100D2A00000000000D2A1000000003B
:010776002260
:10048000E4FEEFA806088002C333D8FC30E704D2AC
:10049000A18002C2A100D2A00000000000C2A00EF4
:1004A000BE08DF0000D2A10000D2A000000030A1F1
:0B04B00004C2008002D200C2A00000C5
:0104BB00221E
:10063200E4FFD2A1FE00C2A00000000000D2A00090
:1006420000EF25E0FF30A1010F00000EBE08E6C258
:03065200A0000005
:010655002282
:10071300200104C2A18002D2A1000000D2A00000E7
:08072300000000C2A00000224A
:0507C500344310100197
:10000300E4FDFCC3ED9FEC9E5015E4FBFA0BBB0033
:0F001300010AEB640C4A70F50DBD00010C80E48E
:0100220022BB
:10069900E4FDFCC3ED9FEC9E5015E4FBFA0BBB0097
:0F06A900010AEB64784A70F50DBD00010C80E486
:0106B800221F
:0907B700C292D293C297D294229F
:1006D900E4FEEF30E704D2958002C295EF25E0FFF2
:0E06E900D297309603430701C2970EBE08E475
:0106F70022E0
:0A06F800E4FD7F211207020D7F22AE
:10070200C2931206D9AC07AF051206D9D293AF0431
:0107120022C4
:0C07A000C2931206D9E4FF1206D9D293CE
:0107AC00222A
:06052A008B6B8A6C896DE9
:10053000C2931206D9AD07E4FCECC3956E5017E4E4
:10054000FF1206D9AB6BAA6CA96D8C82758300EF84
:0A0550001201620C80E3D293AF05A4
:01055A00227E
:0B04BC007BFF7A0779C57570057F2A69
:0604C7008B6D8A6E896F47
:1004CD00C2931206D9AD07E4FCECC395705015AB81
:1004DD006DAA6EA96F8C82758300120135FF12060D
:0804ED00D90C80E5D293AF05A4
:0104F50022E4
:06055B008B1A8A1B891CAB
:10056100C2931206D9AD07E4FCECC3951D5017E404
:10057100FF1206D9AB1AAA1BA91C8C82758300EF46
:0A0581001201620C80E3D293AF0573
:01058B00224D
:1003A6008B698A6A896BC2927BFF7A0779C57570F9
:1003B600057F301204C71204BCAB69AA6AA96B7523
:1003C60070087FA01204C71206F81D7F24120702C8
:1003D6007D287F251207027D077F261207027D0EE4
:0E03E6007F20120702D2927F057E0002069948
:10058C00C2921204BC1206F87D287F251207027D48
:10059C00087F311207021D7F261207027D0F7F2074
:0C05AC00120702D2927F237E000200039F
:1005E4007F071207A08F08E50830E613C2927B004C
:1005F4007A007909756E087F6112052A7569017D93
:08060400FF7F27120702AF6916
:01060C0022CB
:10060D007F071207A08F08E50820E50330E4137D6E
:10061D00FF7F27120702C2937FE11206D9D2937F83
:05062D0000227F012204
:0A07AD00C0F9A4B0999282F8809080
:10032800E5621460201460301460401460502404A6
:1003380070557D417F901206B97F9012065675223E
:10034800008F2380427D427F901206B97F9012066B
:10035800567524008F25802F7D437F901206B97F24
:10036800901206567526008F27801C7D407F9012BC
:1003780006B97F901206567528008F298009AB2B85
:100388007D407F901205B885282A85292B0562E5CE
:0E03980062D394044003E4F562AE22AF232248
:0D078500EFD3940040077E7DDEFE1F80F361
:010792002244
:1005B8008F698D6A8B6B12072BAF6912048020003C
:1005C80002C322AF6A120480200002C322AF6B125A
:0C05D8000480200002C322120766D32218
:1006B9008F698D6A12072BAF69120480200002C36B
:1006C90022AF6A120480200002C322120766D322D5
:020656008F69AA
:1006580012072BE56904FF1204802000037F0022A3
:0F0668001206328F6AD201120713120766AF6AA9
:010677002260
:100220000202A0E493A3F8E493A34003F68001F252
:1002300008DFF48029E493A3F85407240CC8C333DF
:10024000C4540F4420C8834004F456800146F6DFAE
:10025000E4800B0102040810204080900777E47EC0
:10026000019360BCA3FF543F30E509541FFEE493A3
:10027000A360010ECF54C025E060A840B8E493A36A
:10028000FAE493A3F8E493A3C8C582C8CAC583CA95
:10029000F0A3C8C582C8CAC583CADFE9DEE780BE4D
:010784000074
:10002600E709F608DFFA8046E709F208DFFA803EBC
:1000360088828C83E709F0A3DFFA8032E309F608A9
:10004600DFFA8078E309F208DFFA807088828C8311
:10005600E309F0A3DFFA806489828A83E0A3F608C5
:10006600DFFA805889828A83E0A3F208DFFA804C9F
:1000760080D280FA80C680D4806980F28033801076
:1000860080A680EA809A80A880DA80E280CA8033DF
:1000960089828A83ECFAE493A3C8C582C8CCC58357
:1000A600CCF0A3C8C582C8CCC583CCDFE9DEE78027
:1000B6000D89828A83E493A3F608DFF9ECFAA9F0A6
:1000C600EDFB2289828A83ECFAE0A3C8C582C8CCFC
:1000D600C583CCF0A3C8C582C8CCC583CCDFEADE15
:1000E600E880DB89828A83E493A3F208DFF980CC77
:1000F60088F0EF60010E4E60C388F0ED2402B40470
:100106000050B9F582EB2402B4040050AF23234516
:06011600822390007673C5
:10011C00BB010689828A83E0225002E722BBFE02E1
:09012C00E32289828A83E4932214
:10013500BB010CE58229F582E5833AF583E022507F
:1001450006E92582F8E622BBFE06E92582F8E222C9
:0D015500E58229F582E5833AF583E49322E3
:10016200F8BB010DE58229F582E5833AF583E8F0D3
:10017200225006E92582C8F622BBFE05E92582C87F
:02018200F22267
:00000001FF
